:03000000020A777A
:0C0A7700787FE4F6D8FD75810E020800BF
:0A0A99003F065B4F666D7D077F6F1F
:050AA300007F02DFFEF0
:010AA800222B
:0A0A8F00C294D294120AA3C294226A
:0C0A83005389F0438901E4F58CF58A22C8
:100A3C00E4FDFCC3ED9FEC9E500B000000000DBDCF
:050A4C0000010C80EE2A
:010A51002282
:100A5200EF1FAC0670011E4C600A7D027CEFDCFECB
:040A6200DDFC80EC4B
:010A6600226D
:1009E200E4FEC29300EF30E004D2928002C2920091
:1009F200D29300EFC313FF0EBE08E7C2930000D2EA
:090A0200920000D2930000C2939F
:010A0B0022C8
:100A6700D293D2927F027E00120A3CC292020A3CC3
:100A0C00C2937F027E00120A3CC292120A3CD2931D
:080A1C00120A3CD292020A3CCE
:020A2400AE071B
:100A26007B80ED6006EE54074488FB120A67AF032D
:060A36001209E2020A0CA5
:0609A7008B0C8A0D890E85
:1009AD00120A677F401209E2120A0C120A677FC011
:1009BD001209E2E4FDAB0CAA0DA90E8D8275830020
:1009CD0012090FFF1209E20DBD04EA120A0C7D0196
:0509DD007F07020A245F
:10080000120A83E4FDFF120A247F647E00120A525A
:10081000120A8F90000020951B0582E582AE83703E
:1008200002058314FFE4FCFD7B607AEAF9F8D31239
:10083000099150E2AF82AE83E4FCFD7B607AEAF975
:10084000F8D312099140C9D28CE4F583F582309532
:100850001B0582E582AE837002058314FFE4FCFD74
:100860007B607AEAF9F8D312099150E2C28CAF8228
:10087000AE83E4FCFD7B607AEAF9F8D3120991407B
:100880008FAF8CEFFEAD8AEDFFE4F58CF58AFC7D31
:100890003A12093CAB07AA067C007D0A12093C7497
:1008A000992FF582740A3EF583E493F5087C007D68
:1008B0000AAF03AE0212093C74992DF582740A3C0A
:1008C000F583E493F509900A99E493F50AF50BD3BF
:1008D000EB9428EA9400400575A007801FD3EB94A1
:1008E00014EA9400400575A0038011D3EB940AEA42
:1008F0009400400575A0018003E4F5A07B007A0018
:0F09000079081209A77FC87E00120A5202081058
:10090F00BB010CE58229F582E5833AF583E022509D
:10091F0006E92582F8E622BBFE06E92582F8E222E7
:0D092F00E58229F582E5833AF583E4932201
:10093C00BC000BBE0029EF8DF084FFADF022E4CC9F
:10094C00F875F008EF2FFFEE33FEEC33FCEE9DEC68
:10095C00984005FCEE9DFE0FD5F0E9E4CEFD22EDAE
:10096C00F8F5F0EE8420D21CFEADF075F008EF2FF8
:10097C00FFED33FD4007985006D5F0F222C398FDE9
:05098C000FD5F0EA2286
:10099100EB9FF5F0EA9E42F0E99D42F0EC6480C8DD
:0609A10064809845F0227D
:00000001FF
