:03000000020A22CF
:0C0A2200787FE4F6D8FD75811202080010
:0A0A46003F065B4F666D7D077F6F72
:050A5000007F02DFFE43
:010A5500227E
:0909C7007F027E001209D0C292E9
:1009D000E4FDFCC3ED9FEC9E500B000000000DBD3C
:0509E00000010C80EE97
:0109E50022EF
:1009FE00EF1FAC0670011E4C600A7D027CEFDCFE20
:040A0E00DDFC80EC9F
:010A120022C1
:10099D00E4FEC29300EF30E004D2928002C29200D6
:1009AD00D29300EFC313FF0EBE08E7C2930000D22F
:0909BD00920000D2930000C293E5
:0109C600220E
:0C0A2E00D293D2921209C7C2930209D0E1
:0F0A1300C2931209C7D2931209D0D2920209D00E
:0209E600AE075A
:1009E8007B80ED6006EE54074488FB120A2EAF03A5
:0609F80012099D020A1322
:060962008B108A118912BE
:10096800120A2E7F4012099D120A13120A2E7FC006
:1009780012099DE4FDAB10AA11A9128D827583009E
:100988001208E0FF12099D0DBD04EA120A137D0149
:050998007F070209E6E3
:0C0A3A00758901758C3C758AB0D28C2245
:10080000E4FDFF1209E67F647E001209FE120A3A37
:10081000C28DE4F50AF50BF508F509D3E50994E86E
:10082000E508940340030208DFE4F50AF50B308D78
:10083000FD758C3C758AB0C28D050BE50B70020509
:100840000A6414450A70E70509E50970020508AE57
:1008500008FF7C007D0A12090D74462DF582740A8A
:100860003CF583E493F50FAE08AF097C007D64127C
:10087000090D7E007F0ACFCDCFCECCCE12090D74EC
:10088000462FF582740A3EF583E493F50EAE08AF69
:10089000097C037DE812090D7E007F64CFCDCFCEA9
:1008A000CCCE12090D74462FF582740A3EF583E40E
:1008B00093F50DAE08AF097C037DE812090D74466F
:1008C0002FF582740A3EF583E493F50C7B007A00E1
:0F08D000790C1209627FC87E001209FE02081B14
:0108DF0022F6
:1008E000BB010CE58229F582E5833AF583E02250CD
:1008F00006E92582F8E622BBFE06E92582F8E22217
:0D090000E58229F582E5833AF583E4932230
:10090D00BC000BBE0029EF8DF084FFADF022E4CCCE
:10091D00F875F008EF2FFFEE33FEEC33FCEE9DEC97
:10092D00984005FCEE9DFE0FD5F0E9E4CEFD22EDDD
:10093D00F8F5F0EE8420D21CFEADF075F008EF2F27
:10094D00FFED33FD4007985006D5F0F222C398FD18
:05095D000FD5F0EA22B5
:00000001FF
